:100000000C94C4040C940B050C940B050C940B0578
:100010000C940B050C940B050C940B050C940B0520
:100020000C940B050C940B050C94B11F0C948420BC
:100030000C94BE160C940B050C940B050C940B053C
:100040000C940B050C940B050C940B050C940B05F0
:100050000C940B050C941F170C940B050C940B05BA
:100060000C940B050C940B050C940B050C940B05D0
:100070000C940B050C940B050C940B050C940B05C0
:100080000C940B050C940B050C940B050C940B05B0
:100090000C940B050C940B050C940B050C940B05A0
:1000A0000C940B050C940B050C940B050106020631
:1000B0000112021201110211011602160117021794
:1000C000012C022C012F022F01300230012C022CB6
:1000D000012E022E012C022C011802180116021604
:1000E0000108020801E10116021602E101170217D8
:1000F00001040204011702170108020801E10126A8
:1001000002260127022702E1013302330150025087
:100110000150025001500250015002500150025053
:100120000150025001500250015002500150025043
:100130000150025001500250015002500150025033
:10014000015002500150025000010C020C01090242
:1001500009012C022C01E1012602260127022701B8
:100160002C022C012F022F0130023002E10150023B
:10017000500150025001500250015002500001E164
:1001800001360236011B021B013702370128022803
:10019000012802280136023602E10138023801E165
:1001A000011B021B0137023702E10152025200011A
:1001B000E10126022601270227012C022C02E1017F
:1001C0002E022E01E101370237012C022C012F02F1
:1001D0002F0130023002E1015002500029001400CA
:1001E0001A000800150017001C0018000C0012006F
:1001F00013002A00390004001600070009000A0055
:100200000B000D000E000F0000002800E1000000B0
:100210001D001B000600190005001100100036002B
:1002200037000251E000E300E200035100002C001F
:10023000000001515000510052004F002B002402D9
:10024000250226022702010001002E002F003000A7
:1002500031004C00010021022202230201000100B2
:1002600035002D00330034000000010001000000C3
:100270001E021F02200201000100010026022702C7
:1002800038000451010001000100010000000100DC
:10029000000001000100AA00A90001000070240074
:1002A000250026002700010001002E022F02300247
:1002B00031020100010021002200230001000100A1
:1002C00035022D023302340200000100010000005B
:1002D0001E001F0020003700010001003602370217
:1002E00038020100010001000100010000000100CE
:1002F0000000045101000100010001002B00010079
:10030000010001000100010001000630053001007C
:1003100001000100010001000100010001000100D5
:1003200001000100010001000000010001000000C7
:100330000100010001000100010001000100013085
:100340000030010001000100010001000000010077
:100350000000010001000100010001000100400057
:1003600041004200430001000100010001000100C2
:100370000100010001003D003E003F00440001007B
:100380000100010001000100000001000100000067
:100390003A003B003C004500010001000100010063
:1003A0000100010001000100010001000000010046
:1003B0000000010001000100010001000100010036
:1003C0000100010001000100010001000100010025
:1003D0000100010001000100010001000100010015
:1003E0000100010001000100000001000100000007
:1003F00001000100010001000100010001000100F5
:1004000001000100010001000100010000000100E5
:1004100000000100010001000100010001000100D5
:1004200001000100010001000100010001000100C4
:1004300001000100010001000100010001000100B4
:1004400001000100010001000000010001000000A6
:100450000100010001000100010001000100010094
:100460000100010001000100010001000000010085
:100470000000010001000100010001000100010075
:100480000100010001000100010001000100010064
:100490000100010001000100010001000100010054
:1004A0000100010001000100000001000100000046
:1004B0000100010001000100010001000100010034
:1004C0000100010001000100010001000000010025
:1004D0000000010001000100010001000100010015
:1004E0000100010001000100010001000100010004
:1004F00001000100010001000100010001000100F4
:1005000001000100010001000000010001000000E5
:1005100001000100010001000100010001000100D3
:1005200001000100010001000100010000000100C4
:1005300000000100010001000100010001000100B4
:1005400001000100010001000100010001000100A3
:100550000100010001000100010001000100010093
:100560000100010001000100000001000100000085
:100570000100010001000100010001000100010073
:100580000100010001000100010001000000010064
:100590000000010001000100010001000100010054
:1005A0000100010001000100010001000100010043
:1005B0000100010001000100010001000100010033
:1005C0000100010001000100000001000100000025
:1005D0000100010001000100010001000100010013
:1005E0000100010001000100010001000000010004
:1005F00000000100010001000100010001000100F4
:1006000001000100010001000100010001000100E2
:1006100001000100010001000100010001000100D2
:1006200001000100010001000000010001000000C4
:1006300001000100010001000100010001000100B2
:1006400001000100010001000100010000000100A3
:100650000000010001000100010001000100010093
:100660000100010001000100010001000100010082
:100670000100010001000100010001000100010072
:100680000100010001000100000001000100000064
:100690000100010001000100010001000100010052
:1006A0000100010001000100010001000000010043
:1006B0000000010001000100010001000100010033
:1006C0000100010001000100010001000100010022
:1006D0000100010001000100010001000100010012
:1006E0000100010001000100000001000100000004
:1006F00001000100010001000100010001000100F2
:1007000001000100010001000100010000000100E2
:1007100000000100010001000100010001000100D2
:1007200001000100010001000100010001000100C1
:1007300001000100010001000100010001000100B1
:1007400001000100010001000000010001000000A3
:100750000100010001000100010001000100010091
:100760000100010001000100010001000000010082
:100770000000010001000100010001000100010072
:100780000100010001000100010001000100010061
:100790000100010001000100010001000100010051
:1007A0000100010001000100000001000100000043
:1007B0000100010001000100010001000100010031
:1007C0000100010001000100010001000000010022
:1007D00000000100010001000100010012036B0094
:1007E0006500790062006F00610072006400000023
:1007F000160371006D006B006200750069006C00EB
:1008000064006500720000000403090409026D0021
:10081000040100A0FA0904000001030101000921FC
:10082000110100012240000705810308000A0904A4
:1008300001000103010200092111010001224D0004
:100840000705820308000A090402000103000000F2
:100850000921110100012236000705830308000A5F
:100860000904030001030000000921110100012215
:100870003900070584032000011201100100000067
:1008800008EDFE606001000102000105010906A1FA
:1008900001050719E029E715002501950875018173
:1008A0000205081901290595057501910295017543
:1008B0000391010507190029F71500250195F87521
:1008C000018102C005010980A101850216010026EF
:1008D00003001A81002A8300751095018100C0056C
:1008E0000C0901A1018503160100269C021A0100D2
:1008F0002A9C02751095018100C005010902A10121
:100900000901A10005091901290515002501950511
:1009100075018102950175038101050109300931D5
:100920001581257F95027508810609381581257F77
:10093000950175088106050C0A38021581257F95F9
:100940000175088106C0C005010906A10105071946
:10095000E029E715002501950875018102950175CB
:100960000881010508190129059505750191029570
:1009700001750391010507190029FF150026FF00E5
:10098000950675088100C00011241FBECFEFDAE084
:10099000DEBFCDBF04B603FE27C080913002909128
:1009A0003102A0913202B09133028730904BA740C0
:1009B000B04BD1F4109230021092310210923202F8
:1009C0001092330214BE84B7877F84BF0FB6F894A9
:1009D000A89580916000886180936000109260000B
:1009E0000FBEE0E0F8E3099511E0A0E0B1E0E2EE2F
:1009F000F7E402C005900D92A833B107D9F722E0C1
:100A0000A8E3B1E001C01D92A033B207E1F70E9454
:100A1000071D0C94C3230C940000FC016530E1F029
:100A200038F4662369F0613089F090E080E0089541
:100A30006630D9F782818823C1F38CEA90E008956B
:100A40008281882391F38FEA91E00895828188233F
:100A500061F38EE791E008958281882331F389E480
:100A600091E008950895089581E00895089581E042
:100A700008950C9434050E940F0F2FEF84E39CE03F
:100A8000215080409040E1F700C000000C944217D4
:100A9000EF92FF920F931F93CF93DF938C01FC0192
:100AA000E080F18080916C01811140C082818823B7
:100AB000C1F1C7010E949414C82F682FC7010E947A
:100AC0003D14B7018C2F0E948006EC01B8010E94F2
:100AD0003905882309F44BC0B801CE010E9489086A
:100AE000882309F444C0C531F0E7DF0720F5C230A0
:100AF00080E7D80708F04DC0C115E0E7DE0791F1A7
:100B0000C130D047E1F181E080933A0180933B010D
:100B1000C801DF91CF911F910F91FF90EF900C943E
:100B20003705C7010E946B14C82FCBCFC7010E94A5
:100B30009414B701C8CFCC3380E7D80709F49BC021
:100B4000CD33D04701F7F8018281882309F4BAC078
:100B500010923B010E94EE16909339018093380168
:100B600080E296C0F801828181110E943B0580E0FD
:100B7000DF91CF911F910F91FF90EF900895F801B1
:100B800082818823A1F38091F00181608093F0013C
:100B9000EECFF8018281882309F4BACF0E944F1664
:100BA000811102C00E9435160E946C1690E090934D
:100BB000220280932102FE01E350F047809121023E
:100BC0008160E231F10538F4EB53FC4D0C94732352
:100BD00080912102826080932102809121020E94F3
:100BE00070160E940F0FC3CF809121028460F3CF53
:100BF000809121028860EFCF809121028061EBCF4C
:100C0000809121028062E7CF809121028064E3CF4E
:100C1000809121028068DFCF809121028C60DBCF40
:100C2000809121028E7FD7CF809121028D7FD3CFFB
:100C3000809121028B7FCFCF80912102877FCBCF04
:100C4000809121028F7EC7CF809121028F7DC3CFFB
:100C5000809121028F7BBFCF809121028F77BBCF04
:100C600080912102837FB7CF90912102892F97FB3A
:100C700087F98058B0CFF8018281882361F0109203
:100C80003A010E94EE16909339018093380182E078
:100C90000E94740C6CCF80913A0181110FC0809139
:100CA0003801909139010E94FA16883C910530F480
:100CB00086E20E94490B86E20E94250C82E00E9497
:100CC0007B0C55CF80913B0181110FC08091380181
:100CD000909139010E94FA16883C910530F487E220
:100CE0000E94490B87E20E94250C80E2E8CF0C9419
:100CF000D8080C94DA080C9436050C947B060895F9
:100D0000972F70E02CE0929F600D711D1124FB0164
:100D100090E3899FE00DF11D1124EE0FFF1FE452B7
:100D2000FE4F859194910895FC01EE0FFF1FE45250
:100D3000F84F8591949108950E9480060E940D08B5
:100D40009C01811540E4940708F097C0211580E3C9
:100D5000380708F0FAC0203E310508F074C0203C86
:100D6000310508F0E5C0283A310588F4253A310507
:100D700008F0E2C02130310509F477C0C9010497B9
:100D8000813A910508F471C030E020E06EC0C901DD
:100D9000885A91094597C0F7283A310509F4FEC0F1
:100DA000293A310509F4FDC02A3A310509F4FCC09D
:100DB0002B3A310509F4FBC02C3A310509F4FAC08D
:100DC0002B3B310509F4F9C02C3B310509F4F8C07F
:100DD0002D3A310509F4F7C0203B310509F4F6C07E
:100DE0002E3A310509F4F5C02F3A310509F4F4C063
:100DF000213B310509F4F3C0223B310509F4F2C06F
:100E0000233B310509F4F1C0243B310509F4F0C05E
:100E1000253B310509F4EFC0263B310509F4EEC04E
:100E2000273B310509F4EDC0283B310509F4ECC03E
:100E3000293B310509F4EBC02A3B310509F4EAC02E
:100E400020E034E412C0211590E2390780F42F3FEE
:100E5000310509F050F4283E310538F0C901805FB2
:100E600091093065409708F08FCFC9010895C901F5
:100E70009F700E9494069C01F8CF8115944508F05C
:100E800041C0211583E5380708F06AC0211592E5B5
:100E9000390738F5211541E5340708F05CC0211504
:100EA00080E5380708F454C0C90134E09695879569
:100EB0003A95E1F78370422F46954695437090E24C
:100EC000499FA0011124582B822F837021E030E02C
:100ED00002C0220F331F8A95E2F7242B352B3C6882
:100EE000C4CFC9018370992741E050E002C0440F8C
:100EF000551F8A95E2F72695269580E2289F900156
:100F00001124EBCF211596E5390748F4922F882755
:100F100021153545C8F59C01246F306AA6CFC9015B
:100F200090563F708115904108F02ECF30629DCFD2
:100F3000C901805C91099DCF253A310549F1263AD6
:100F4000310549F522E830E490CF3327306C8DCF5E
:100F50003F70306A8ACF322F2227216F306A85CFC7
:100F6000C9018370992741E050E002C0440F551F2A
:100F70008A95E2F72695269580E2289F9001112414
:100F8000242B352B3A6871CF88279F719C01CECFD7
:100F900021E830E46ACF23E830E467CF22EE34E47E
:100FA00064CF29EE34E461CF2AEE34E45ECF25EB42
:100FB00034E45BCF26EB34E458CF23EB34E455CF55
:100FC00024EB34E452CF27EB34E44FCF2CEC34E461
:100FD0004CCF2DEC34E449CF23E835E446CF2AE862
:100FE00035E443CF22E935E440CF24E935E43DCF71
:100FF00021E236E43ACF23E236E437CF24E236E486
:1010000034CF25E236E431CF26E236E42ECF27E294
:1010100036E42BCF2AE236E428CF803E910581F1D9
:10102000C8F48133910509F462C048F4893291050E
:1010300009F456C08A32910509F460C008958933D5
:101040009105B9F082389105A1F08533910509F435
:1010500040C00895863E910561F138F4823E9105C5
:10106000B1F0833E9105E1F00895873E910551F17D
:101070000895209121022370D9F080EE90E0089528
:101080002091210220FF14C089E390E0089520916F
:10109000210222FF0DC024FD09C083EE90E00895D7
:1010A0002091210222FD31C024FF02C090E080E0A7
:1010B00008952091210223FFFBCF24FDF7CF87EE77
:1010C00090E008952091210223FFEECF86EE90E07C
:1010D00008952091210225FFEBCF89E290E0089549
:1010E0002091210225FFE4CF85E390E0089520912F
:1010F000210226FFDDCF8AE290E0089520912102AF
:1011000026FFD6CF81E390E0089582EE90E0089527
:1011100008950F931F93CF938C01FB01828181115E
:1011200006C0C1E08C2FCF911F910F910895C091FF
:101130004901C11125C00531104799F70E9488085F
:1011400081E0809349010E94EE16909348018093BC
:10115000470110923C0110923E0110923D01109205
:10116000400110923F0110924201109241011092F1
:101170004401109243011092460110924501D2CFD2
:1011800080914701909148010E94FA16883C910590
:1011900040F680913C01E82FF0E0EE0FFF1FE35C8A
:1011A000FE4F118300838F5F80933C01C0E0BACF74
:1011B0000C9432050C943305CF93DF9385B7806888
:1011C00085BF85B7806885BFAFE1B1E043E251E0FC
:1011D000C1E0D0E08D91E82FE295EF70F0E061A1E1
:1011E0008F709E0101C0220F8A95EAF7922F909589
:1011F000962391A382A1822B82A34A175B0751F702
:10120000A3E1B1E04FE151E0C1E0D0E08D91E82FE2
:10121000E295EF70F0E061A18F709E0101C0220F96
:101220008A95EAF7922F9095962391A382A1822B1B
:1012300082A34A175B0751F7109253011092520193
:1012400010924B0110924A011092550110925401D4
:1012500010924D0110924C011092570110925601BC
:1012600010924F0110924E011092590110925801A4
:101270001092510110925001DF91CF910C9477069A
:101280004F925F927F928F929F92AF92BF92CF9236
:10129000DF92EF92FF920F931F93CF93DF939AE425
:1012A000492E91E0592E2FE1E22E21E0F22E01E0AD
:1012B00010E099249394E201A990B9902E01DE01E7
:1012C0001E921E92F70181917F01E82FE295EF7047
:1012D000F0E091A18F70980101C0220F8A95EAF782
:1012E000892F822B81A382A1822E8094882182A3C0
:1012F00080EA8A95F1F783E1C82E81E0D82E90E04C
:1013000080E0E60179916E01472F42954F7050E0E1
:10131000EA0178A04D915C9111977F70E80102C0BD
:10132000CC0FDD1F7A95E2F7BE01672109F06AC094
:10133000B801082E02C0660F771F0A94E2F7462B09
:10134000572B11965C934E9301968C309105C9F6FC
:1013500081A1882281A282A1282B22A38D919C9118
:10136000A816B90641F090925A010E94EE16909389
:101370005C0180935B01D2E54D16D1E05D0609F07A
:101380009ACF80915A01882351F180915B0190910D
:101390005C010E94FA16069710F180914A01909123
:1013A0004B01909353018093520180914C01909195
:1013B0004D01909355018093540180914E0190917D
:1013C0004F01909357018093560180915001909165
:1013D0005101909359018093580110925A010E9433
:1013E000790681E0DF91CF911F910F91FF90EF90EF
:1013F000DF90CF90BF90AF909F908F907F905F9045
:101400004F90089570E060E09ACFE82FF0E0EE0F83
:10141000FF1FEE5AFE4F80819181089508959093A9
:101420006201809361010895E0916101F091620190
:10143000309721F00190F081E02D099480E008952B
:10144000E0916101F0916201309721F00280F38117
:10145000E02D09940895E0916101F09162013097C7
:1014600021F00480F581E02D0994089520915F0119
:10147000309160012817390771F0909360018093D3
:101480005F01E0916101F0916201309721F00680E7
:10149000F781E02D0994089520915D0130915E015E
:1014A0002817390771F090935E0180935D01E091F8
:1014B0006101F0916201309721F00084F185E02D07
:1014C0000994089508950C94620A0E94E5160E94FA
:1014D000DC080C94AF175F926F927F928F929F926D
:1014E000AF92BF92CF92DF92EF92FF920F931F9332
:1014F000CF93DF9300D000D00F92CDB7DEB70E941C
:10150000400994E6A92E91E0B92E10E000E088246D
:101510008394912C502E802F0E94050A7C01F501A6
:10152000C190D1905F01C816D90609F45DC08091C1
:10153000F00181FD0E940E0A90E080E0CE24DF24BD
:101540003401082E02C0660C771C0A94E2F796015B
:1015500026213721232B09F442C089835A82E620B1
:10156000F72081E0EF2809F480E08B830E94EE16DB
:101570008160782F9D838C8349815A816B818D8115
:101580000E94200B000F111FF801EC59FE4F8081C3
:10159000918168267926718260820E945C1A0E947D
:1015A000140A909163018917B1F10E94140A809383
:1015B00063010F900F900F900F900F90DF91CF91DC
:1015C0001F910F91FF90EF90DF90CF90BF90AF9061
:1015D0009F908F907F906F905F900C947D06019606
:1015E0008C30910509F0ACCF0F5F1F4F043011050F
:1015F00009F090CF8FEF89838A831B820E94EE16B9
:101600008160782F9D838C8349815A816B818D8184
:101610000E94200BC2CF0F900F900F900F900F9051
:10162000DF91CF911F910F91FF90EF90DF90CF90BE
:10163000BF90AF909F908F907F906F905F90089534
:10164000CF93DF93CDB7DEB72B970FB6F894DEBFFD
:101650000FBECDBF4F83588769877A878B871E82DD
:1016600085E0FE013796DE01119601900D928A9574
:10167000E1F749815A816B817C818D819E812B9616
:101680000FB6F894DEBF0FBECDBFDF91CF910C94A3
:101690009711882309F4D8C0823871F40E94140A83
:1016A00081FDD2C089E30E943C150E94061689E3A1
:1016B0000E9479150C940616833859F40E94140A76
:1016C00080FDC2C083E50E943C150E94061683E59A
:1016D000EFCF843859F40E94140A82FDB5C087E424
:1016E0000E943C150E94061687E4E2CF9CEF980FFB
:1016F000913A18F40E943C15DDCF90E2980F983093
:1017000050F4877091E001C0990F8A95EAF7892F0C
:101710000E94BD15CFCF9BE5980F933070F4853AAA
:1017200031F0863A39F083E890E00C94360A81E88B
:1017300090E0FBCF82E890E0F8CF98E5980F9531E4
:1017400008F082C0883A09F440C0893A09F440C0E0
:101750008A3A09F440C08B3A09F440C08C3A09F443
:1017600040C08B3B09F440C08C3B09F440C08D3A2B
:1017700009F440C0803B09F440C08E3A09F440C0EF
:101780008F3A09F440C0813B09F440C0823B09F420
:1017900040C0833B09F440C0843B09F440C0853B12
:1017A00009F440C0863B09F440C0873B09F440C0BF
:1017B000883B09F440C0893B09F440C08A3B09F4E6
:1017C00040C090E080E00C944C0A82EE90E0FBCFA9
:1017D00089EE90E0F8CF8AEE90E0F5CF85EB90E0CF
:1017E000F2CF86EB90E0EFCF83EB90E0ECCF84EB91
:1017F00090E0E9CF87EB90E0E6CF8CEC90E0E3CF90
:101800008DEC90E0E0CF83E891E0DDCF8AE891E0D5
:10181000DACF82E991E0D7CF84E991E0D4CF81E2B9
:1018200092E0D1CF83E292E0CECF84E292E0CBCFC0
:1018300085E292E0C8CF86E292E0C5CF87E292E0EF
:10184000C2CF8AE292E0BFCF0895882309F44BC04B
:10185000823871F40E94140A81FF45C089E30E9416
:101860003C150E94061689E30E9479150C94061611
:10187000833859F40E94140A80FF35C083E50E9422
:101880003C150E94061683E5EFCF843859F40E9478
:10189000140A82FF28C087E40E943C150E940616A5
:1018A00087E4E2CF9CEF980F913AF0F290E2980F24
:1018B000983050F4877091E001C0990F8A95EAF74B
:1018C000892F0E94C315D2CF9BE5980F933020F447
:1018D00090E080E00C94360A885A853120F490E03C
:1018E00080E00C944C0A0895882321F00E94BD15D5
:1018F0000C9406160895882321F00E94C3150C94B9
:10190000061608958F929F92AF92BF92DF92EF9248
:10191000FF920F931F93CF93DF9300D000D00F92CD
:10192000CDB7DEB77C016D837983FC01058102951B
:101930000F70128111110E94DC150E943515D82EEE
:10194000882371F01123A1F08D81805E883080F0B2
:1019500082E00E941F150E94351591E0D82ED926ED
:10196000E981E295EF70F0E0E952FC4D0C947323AD
:10197000D12CF6CF09810F70F981F07F11F002951B
:10198000007F1123B1F0002361F08D81805E8830EB
:1019900018F02D81211109C0802F0E94BD150E94D1
:1019A00006168D810E94490B15C0802F0E94CE150E
:1019B000F6CF8D810E94250C002361F08D81805E21
:1019C000883018F03D81311129C0802F0E94C31545
:1019D0000E940616DD2009F4D3C10E94121580FD75
:1019E000CFC1F70112820E940C150E945513C70146
:1019F0000E94D10E0E940C150F900F900F900F9027
:101A00000F90DF91CF911F910F91FF90EF90DF909A
:101A1000BF90AF909F908F900C947713802F0E946F
:101A2000D415D6CF49814F70B42E5981507F503292
:101A300019F0B29480EFB8228D81882369F081304B
:101A400029F1112369F1002359F0F701858180FF05
:101A5000A8CF8F70858304C0112361F0011104C0E9
:101A60008B2D0E94740CB6CF8B2D0130D1F70E94C4
:101A7000F015B0CF011106C00E94F3158B2D0E9406
:101A80007B0CA8CF013009F4A5CFF6CF112321F0AC
:101A9000063008F09FCFE4CF053008F09BCFEECFA3
:101AA000002361F38D810E94250C94CF8981869556
:101AB0008695837069F0813009F08CCF8D81998192
:101AC0009370111102C090E080E00E944C0A82CF16
:101AD0008D8199819370111102C090E080E00E9485
:101AE000360A78CF8D81112329F00E946A190E944D
:101AF000511A70CF0E94D219FACF8981837009F0F0
:101B00005FC0111167CF2D81229526952770220F76
:101B1000220F8D818F7090E0B0E0A0E04C015D015C
:101B2000022E04C0880C991CAA1CBB1C0A94D2F774
:101B3000FD8160E070E0CB01F4FF0FC06FE070E06A
:101B400080E090E004C0660F771F881F991F2A95D8
:101B5000D2F7609570958095909529812695269568
:101B600023702D832230B1F0233019F19B01AC0199
:101B7000282939294A295B2929833A834B835C83A5
:101B80003D8169817A818B819C813130B1F00E94E5
:101B9000E21220CF9B01AC01282939294A295B296F
:101BA00029833A834B835C83CA01B9010E940C13D9
:101BB00011CF0E94E212C501B4010E94B8120ACFEF
:101BC0008695112311F089818170882309F402CF51
:101BD0002D81229526952770220F220F8D818F70DF
:101BE00090E0B0E0A0E04C015D01022E04C0880C42
:101BF000991CAA1CBB1C0A94D2F73D8160E070E0DE
:101C0000CB0134FF0FC06FE070E080E090E004C0D3
:101C1000660F771F881F991F2A95D2F760957095D8
:101C20008095909549814695469543704D83423005
:101C3000B1F0433019F19B01AC01282939294A2917
:101C40005B2929833A834B835C833D8169817A8157
:101C50008B819C813130B1F00E94E813BBCE9B0197
:101C6000AC01282939294A295B2929833A834B83E6
:101C70005C83CA01B9010E941214ACCE0E94E81321
:101C8000C501B4010E94BE13A5CE3D81323F09F4C7
:101C900047C080F4303F79F1313FD9F1832F805E26
:101CA0008031D0F0112309F456C001117ACE898118
:101CB0008F7133C04D81433FD1F1443F99F71123D8
:101CC00009F43FC089818F7189830E94551363E0B5
:101CD00089810E9416157ECE5D815F705D8389814A
:101CE0008F71112321F00E9455138D81BACE0E946D
:101CF00077138D81C4CE112341F0053008F06ACEF0
:101D000089818F710E949C1365CE063008F062CEE7
:101D1000F7CF89818F71112339F00E9455135ACE64
:101D200089818F711123C9F30E94771353CE112338
:101D300029F089818F710E9440134CCE0E94361386
:101D400049CE81E00E941F15023008F443CE82E0A4
:101D50000E941F153FCE0111A5CE89818F71E4CF5E
:101D600049814F706D81C7010E940D050E9431129B
:101D700031CE49814F706D81C7010E947F062ACE06
:101D80000F900F900F900F900F90DF91CF911F91B8
:101D90000F91FF90EF90DF90BF90AF909F908F904A
:101DA00008950F931F93CF93DF93EC018B819C8158
:101DB000892B29F08881998189238F3F29F4DF912C
:101DC000CF911F910F910895CE010E94480588235D
:101DD000B1F3688179818A810E94E2148C010E94AA
:101DE0003C140E94AD12B801CE01DF91CF911F913A
:101DF0000F910C94820C0E94DC150E94ED150E943C
:101E0000AF150E9406160E94421B0E94511A90E0D4
:101E100080E00E94360A90E080E00C944C0A0E9418
:101E2000CB150C94FB0E0E94D614282F892F829577
:101E30008F70903C80F48A30B0F4843020F482308B
:101E400090F480E008958630E1F781E0203E88F04C
:101E5000213FB9F70EC08C3011F08F3091F793FB12
:101E6000882780F9089581E0203F39F018F4203E5A
:101E700040F70895243F29F7FCCF0895CF93DF93CF
:101E800000D000D00F92CDB7DEB70F900F900F901B
:101E90000F900F90DF91CF910895CF93DF9300D0F3
:101EA00000D000D0CDB7DEB726960FB6F894DEBFCF
:101EB0000FBECDBFDF91CF9108951F93CF93DF93D6
:101EC000E0916D0116E080916E018E1304C0DF91E8
:101ED000CF911F910895CE2FD0E01E9FF0011124C5
:101EE000E159FE4F408151816281738184819581E6
:101EF0000E944D0FFE013196E770E5CF40919F01A2
:101F00005091A0016091A1017091A2018091A30163
:101F10009091A4010C944D0F1F93CF93DF93809168
:101F2000A401807FC1F48091A1018823A1F0809158
:101F30006D01C0916E0160919F017091A00140916F
:101F4000A2015091A301D62FD723DA01A095B09515
:101F500016E0C81304C0DF91CF911F91089590E05F
:101F60004115510511F0DF3F31F401968770F1CF33
:101F70002A0F3B1F17C0189FF001199FF00D112465
:101F8000E159FE4F21812713F0CF20812613EDCF99
:101F900022812111EACF238134812417350740F3B0
:101FA000241B350B283C310500F72091A4012F702C
:101FB00020612093A40126E0289FF001299FF00DC5
:101FC0001124EC58FE4F80818F70806180838FE9EF
:101FD00091E00E94D10EDF91CF911F910C945D0F83
:101FE0009F92AF92BF92CF92DF92EF92FF920F93A8
:101FF0001F93CF93DF93CDB7DEB72B970FB6F8942F
:10200000DEBF0FBECDBF8C0185E0F801DE01179663
:1020100001900D928A95E1F7D8014C9111965C914F
:1020200011971296EC9012978091A2019091A301C2
:10203000009709F46BC120919F013091A001632F9B
:1020400062236F3F09F462C11396CD90DC909090AB
:10205000A101992009F4F8C0C816D90608F43FC0B8
:10206000F601E81BF90BCF01FF24F394883C91059E
:1020700008F0F12C8FE9A82E81E0B82E8091A40100
:10208000982F907FFF2009F4B7C0911180C0FE2CDB
:1020900035132AC0241328C0E11026C08F70806138
:1020A0008093A4010E947E0FC5010E94D10E8091F1
:1020B000A401D80115968C938F2D2B960FB6F8940A
:1020C000DEBF0FBECDBFDF91CF911F910F91FF906B
:1020D000EF90DF90CF90BF90AF909F900895809544
:1020E00090958C0D9D1DC0CFCD2829F0842F852380
:1020F0008F3F09F019C180E0B82FB170DB2EE0915D
:102100006D0120916E0136E080FD1CC0EE20A1F231
:102110008091A40181608093A401F12CCDCF8E2FFA
:1021200090E03E9FF0011124E159FE4F618165135B
:1021300006C06081641303C062816E11E7CFFC01A9
:102140003196E770E213EBCF4F8358878F819885E4
:102150000E94D614292F22952F70903260F0225FB2
:102160002F70223078F49F7051F0F8019581907FA4
:1021700031F4D12C0AC09F7011F08823D1F3805E16
:102180008830B8F3C8010E94D10EFD2C95CF3513CD
:1021900006C0241304C0D801EE2009F47BC04F838D
:1021A00058878F8198850E94130F882309F4B8C03F
:1021B000EE2009F4B5C08091A401803270F0209126
:1021C0009F013091A0013A8329831B82DD82CC825A
:1021D0008E83CE0101960E94D10E86E0F801AFE910
:1021E000B1E001900D928A95E1F70E948C0F0E9458
:1021F0007E0FFF24F39460CF911113C07C2DDB86FA
:10220000CA866E2D8B850E943E0F8FE991E00E9459
:10221000D10E86E0F50111928A95E9F70E947E0FB2
:102220004BCF3513BCCF2413BACFE110B8CFD801B0
:1022300015968C93C8010E94D10E86E0F50111928B
:102240008A95E9F7F92C38CFC816D90688F1B60176
:10225000681B790BCB01F12C883C910508F047C035
:10226000FE2CEE2009F45CC0351330C024132EC0C0
:102270008091A40180FD21C0982F907FF1F0D801BA
:1022800015968C931597903F39F0982F907F905F1B
:102290008F70892B15968C93C8010E94D10E86E011
:1022A000F801AFE9B1E001900D928A95E1F7B6CF60
:1022B000809590958C0D9D1DCECF86E0F801AFE9FD
:1022C000B1E001900D928A95E1F7F6CE4F835887E1
:1022D0008F8198850E94130F81117FCF8091A40177
:1022E00081608093A401C8010E94D10EE5CE7C2DAF
:1022F000DB86CA866E2D8B850E943E0F86E0EFE955
:10230000F1E0DF011D928A95E9F788CFEE2041F0D8
:102310004F8358878F8198850E94130F81115DCF5D
:10232000C8010E94D10E65CF81E08E25E5CE1F93B6
:10233000CF93DF93CDB7DEB72C970FB6F894DEBFFF
:102340000FBECDBF4F83588769877A878B879C875D
:10235000CE0107960E94F00F882369F08A859B853D
:10236000892B39F04F815885842F85238F3F09F0C1
:1023700071C016E05FC086E0FE013796DE0111965F
:1023800001900D928A95E1F78A859B85892B89F3C7
:1023900088859F8189238F3F61F320916E0130E012
:1023A000C90101968770992740916D014817190658
:1023B00071F40E940F0F10926E0110926D0186E071
:1023C000EFE9F1E0DF011D928A95E9F7D2CF96E0BF
:1023D000929FD001939FB00D1124A159BE4FFE01D1
:1023E000319601900D929A95E1F780936E010E94CB
:1023F0005D0FBFCF819FC001112481599E4F0E9464
:10240000F00F8823E9F0E0916D011E9FF001112487
:10241000E159FE4F408151816281738184819581B0
:102420000E944D0F80916D0190E001968770992771
:1024300080936D0180916D0190916E018913DACFC7
:102440002C960FB6F894DEBF0FBECDBFDF91CF91B3
:102450001F91089569857A858B859C850E944D0F13
:1024600088CFEF92FF920F931F93CF93DF938C014E
:10247000892B89F0F12CEE24E394E8012196F801F0
:102480008491843709F457C0A0F4823009F43EC027
:1024900048F48130D1F0DF91CF911F910F91FF90DF
:1024A000EF9008959CEF980F9037A8F70E94490B82
:1024B0000AC0853709F44CC09CE7980F903758F74D
:1024C0008F770E94250C8E0116C00E5F1F4FFE01F4
:1024D000849190E2980F983060F48770FE2D01C0CF
:1024E000FF0F8A95EAF78F2F0E94DF150E940616CC
:1024F00002C00E94490B8F2D815008F4BECFEFE936
:10250000FFE03197F1F700C00000F6CF0E5F1F4FDC
:10251000FE01849190E2980F983050F48770FE2D60
:1025200001C0FF0F8A95EAF78F2F0E94E515DECFD5
:102530000E94250CE0CF0E5F1F4FFE01C491C150D9
:10254000D0F28FE99FE00197F1F700C00000F7CFCC
:102550000E5F1F4FFE01F490CECF08956093C70128
:102560007093C8018093C9019093CA010C94FB0E2B
:10257000CF93DF9300D000D0CDB7DEB769837A83E5
:102580008B839C838091C7019091C801A091C90160
:10259000B091CA0129813A814B815C81822B932BB6
:1025A000A42BB52B8093C7019093C801A093C901B8
:1025B000B093CA010F900F900F900F90DF91CF91C1
:1025C0000C94FB0ECF93DF9300D000D0CDB7DEB7D5
:1025D00069837A838B839C838091C7019091C80122
:1025E000A091C901B091CA0129813A814B815C81D6
:1025F00082239323A423B5238093C7019093C8011A
:10260000A093C901B093CA010F900F900F900F9043
:10261000DF91CF910C94FB0ECF93DF9300D000D0CD
:10262000CDB7DEB769837A838B839C838091C701A2
:102630009091C801A091C901B091CA0129813A8144
:102640004B815C8182279327A427B5278093C701FC
:102650009093C801A093C901B093CA010F900F9045
:102660000F900F90DF91CF910C94FB0E1092C3014D
:102670001092C4011092C5011092C6010C94FB0E79
:1026800041E050E060E070E004C0440F551F661F59
:10269000771F8A95D2F74093C3015093C40160938A
:1026A000C5017093C6010C94FB0E282F81E090E0C9
:1026B000A0E0B0E004C0880F991FAA1FBB1F2A9595
:1026C000D2F74091C3015091C4016091C50170914E
:1026D000C601842B952BA62BB72B8093C301909317
:1026E000C401A093C501B093C6010C94FB0E41E058
:1026F00050E060E070E004C0440F551F661F771F74
:102700008A95D2F740955095609570958091C30158
:102710009091C401A091C501B091C6018423952375
:10272000A623B7238093C3019093C401A093C5014E
:10273000B093C6010C94FB0E282F81E090E0A0E03E
:10274000B0E004C0880F991FAA1FBB1F2A95D2F7BB
:102750004091C3015091C4016091C5017091C601BF
:1027600084279527A627B7278093C3019093C40198
:10277000A093C501B093C6010C94FB0ECF93DF93D9
:1027800000D000D0CDB7DEB769837A838B839C837A
:102790008091C3019091C401A091C501B091C6017F
:1027A00029813A814B815C81822B932BA42BB52B01
:1027B0008093C3019093C401A093C501B093C60157
:1027C0000F900F900F900F90DF91CF910C94FB0E14
:1027D000CF93DF9300D000D0CDB7DEB769837A8383
:1027E0008B839C838091C3019091C401A091C5010A
:1027F000B091C60129813A814B815C818223932368
:10280000A423B5238093C3019093C401A093C50171
:10281000B093C6010F900F900F900F90DF91CF9162
:102820000C94FB0ECF93DF9300D000D0CDB7DEB772
:1028300069837A838B839C838091C3019091C401C7
:10284000A091C501B091C60129813A814B815C817B
:1028500082279327A427B5278093C3019093C401AF
:10286000A093C501B093C6010F900F900F900F90E9
:10287000DF91CF910C94FB0E0895E82F2CE0929FEE
:10288000E00D11248E2F877041E001C0440F8A951E
:10289000EAF7E695E695E69585E0E89FF0011124D4
:1028A000EB55FE4F30E020E070E05191DF011197D1
:1028B000CB01022E02C0969587950A94E2F78170AB
:1028C00081958527842385278C932F5F3F4F253063
:1028D000310559F70895E82F2CE0929FE00D11245F
:1028E0009E2F9770E695E695E69585E0E89FF001C6
:1028F0001124EB55FE4F50E040E080E0219130E0A4
:10290000092E02C0369527950A94E2F721703327E5
:10291000042E01C0220F0A94EAF7822B4F5F5F4F0B
:102920004530510559F70895BF92CF92DF92EF924B
:10293000FF920F931F93CF93DF938C01C090C3013D
:10294000D090C401E090C501F090C6018091C7010C
:102950009091C801A091C901B091CA01C82AD92A91
:10296000EA2AFB2ACFE1D0E0BC2ED701C6010C2E0B
:1029700004C0B695A795979587950A94D2F780FDE0
:102980000EC0219788F7B12C8B2DDF91CF911F912D
:102990000F91FF90EF90DF90CF90BF900895B80116
:1029A0008C2F0E949C06019761F3EECFCF93DF93AB
:1029B000D82FC92F0E9494146D2F7C2FDF91CF91B7
:1029C0000C949C061F93CF93DF93162FD72F9091D3
:1029D0006C01992339F0862F972FDF91CF911F91AA
:1029E0000C94D614882391F0862F972F0E9494146C
:1029F000C82F682F812F9D2F0E943D14612F7D2F9E
:102A00008C2FDF91CF911F910C949C06862F972FCE
:102A10000E946B14C82FF2CF8091CB0185958595CC
:102A2000859508958091CB018770089598E0899FDE
:102A300090011124622B6093CB010C94551390915B
:102A4000CB01809589238093CB01282F277061F4D7
:102A5000282F082E000C330B9217130629F08595AA
:102A6000859585950C94771308959091CB01977077
:102A700081E009F480E00895909112019923E1F03A
:102A80009091210297FF18C0E82FE695E695E6950C
:102A9000EF3139F12091000130910101E20FF32F64
:102AA000F11D877021E030E001C0220F8A95EAF71E
:102AB0008181822B81830895209100013091010151
:102AC000F90132969FEF40E05191851751F09F3FF9
:102AD00019F4511101C0942F4F5F4E31A9F79F3F58
:102AE00009F40895290F311D97FD3A95F901828364
:102AF000089590911201992301F19091210297FF7D
:102B00001CC0E82FE695E695E695EF3139F1209166
:102B1000000130910101E20FF32FF11D877021E0D8
:102B200030E0A90102C0440F551F8A95E2F7CA019F
:102B300080959181892381830895209100013091AE
:102B40000101F9013296205E3F4F9191891303C034
:102B5000DF0111971C92E217F307B9F7089581E09E
:102B600090E0E0910001F0910101E80FF91F10825F
:102B7000019680329105A9F708959091EF01982B65
:102B80009093EF010895982F90958091EF018923FC
:102B90008093EF0108951092EF0108959091EE0156
:102BA000982B9093EE010895982F90958091EE01C7
:102BB00089238093EE0108951092EE01089590917B
:102BC000ED01982B9093ED010895982F90958091A9
:102BD000ED0189238093ED0108951092ED01089590
:102BE0008093CC0108951092CC01089520910001AA
:102BF00030910101F9013196205E3F4F80E09191C3
:102C000091118F5FE217F307D1F70895E09100016A
:102C1000F09101018091EF018083E0910001F0913A
:102C2000010180819091EE01892B8083E091000168
:102C3000F091010180819091ED01892B8083909129
:102C4000CC01992361F0E0910001F09101018081B4
:102C5000892B80830E94F61581111092CC018091FE
:102C60000001909101010C94200A6DEE7EEF90E03E
:102C700080E00E94AD2360E082E090E00E949B2310
:102C800060E083E090E00E949B2360E084E090E0BD
:102C90000E949B2360E085E090E00C949B2390E0F1
:102CA00080E00E9495239C0181E02D3E3E4F09F07B
:102CB00080E0089582E090E00C948D23682F82E0FC
:102CC00090E00C949B2383E090E00C948D23682F7C
:102CD00083E090E00C949B2384E090E00C948D239F
:102CE000682F84E090E00C949B238091270284302D
:102CF00039F11092F10188E190E020E40FB6F894E8
:102D0000A895809360000FBE2093600080E00E9431
:102D10007D0683B7817F846083BF83B7816083BF73
:102D20007894889583B78E7F83BF0FB6F894A89563
:102D300080916000886180936000109260000FBEF7
:102D4000089508950895CF930E94A1160E94400906
:102D50000E94A216C0E08C2F0E94050A892B31F434
:102D6000CF5FC430C1F780E0CF91089581E0FCCF00
:102D70000E940F0F0E94140A0C947D061F921FB62A
:102D80001F9211248F939F93AF93BF938091F10172
:102D9000811113C080911D0290911E02A0911F020B
:102DA000B09120024196A11DB11D80931D02909308
:102DB0001E02A0931F02B0932002BF91AF919F917A
:102DC0008F911F901FBE1F90189582E084BD93E0E5
:102DD00095BD9AEF97BD80936E0008952FB7F89434
:102DE00080911D0290911E02A0911F02B0912002BD
:102DF0002FBF0895CF92DF92EF92FF929C014FB7C1
:102E0000F89480911D0290911E02A0911F02B09132
:102E100020024FBF6C017D01EE24FF24A90170E068
:102E200060E0C416D506E606F70638F0821B930B61
:102E3000FF90EF90DF90CF9008950197F7CF1F920A
:102E40001FB61F9211248F939F93AF93BF938091CE
:102E50001D0290911E02A0911F02B09120020196C6
:102E6000A11DB11D80931D0290931E02A0931F020D
:102E7000B0932002BF91AF919F918F911F901FBE81
:102E80001F9018950E94361FF8942FEF87EA91E65D
:102E9000215080409040E1F700C0000087E090EBB7
:102EA000DC018093300290933102A0933202B09300
:102EB000330288E19CE00FB6F894A89580936000F7
:102EC0000FBE90936000FFCFAF92BF92CF92DF9280
:102ED000EF92FF920F931F93CF93C0E0AA24A39485
:102EE000B12CE82EF12C8C2F0E94050A6C0110E009
:102EF00000E0C501002E02C0880F991F0A94E2F776
:102F00008C219D21892B99F0602F7C2F80E00E94DD
:102F10008006E816F90659F481E0CF911F910F91D0
:102F2000FF90EF90DF90CF90BF90AF9008950F5F2C
:102F30001F4F0C301105E9F6CF5FC430A1F680E0D9
:102F4000ECCFCF93C82F8CE20E946417882321F026
:102F50008C2FCF910C94641780E0CF910895CF937C
:102F6000DF9300D000D0CDB7DEB70E944F1681119D
:102F700002C00E94351695E6998308C00E94400958
:102F80008FE39CE90197F1F700C00000A981A150EF
:102F9000A983A111F3CF89E20E94A117811110C169
:102FA0008AE20E94A11781110E94351685E00E94D5
:102FB000A11781110E9442170E945A168093F001B6
:102FC00087E00E94A117882371F08BE10E94A1176E
:102FD000882309F4D1C09091F001892F8D7F91FF52
:102FE00082608093F0018091F0010E945E160E9441
:102FF0006C1690E0909322028093210280EE0E9452
:10300000A117882341F090912102892F8E7F90FF94
:1030100081608093210289E30E94A117882341F0F7
:1030200090912102892F8D7F91FF826080932102F0
:1030300082EE0E94A117882341F090912102892FEE
:103040008B7F92FF84608093210286EE0E94A117FD
:10305000882341F090912102892F877F93FF886018
:103060008093210283EE0E94A117882341F0909162
:103070002102892F8F7E94FF80618093210285E356
:103080000E94A117882341F090912102892F8F7D02
:1030900095FF80628093210281E30E94A11788231B
:1030A00041F090912102892F8F7B96FF806480935D
:1030B000210281E10E94A117882341F09091210211
:1030C000892F97FB87F980588093210280912102F4
:1030D0000E94701687E20E94A11789838EE10E94E8
:1030E000A117882319F0B981B260B9838FE10E94DA
:1030F000A117882319F029812460298380E20E9486
:10310000A117882319F039813860398381E20E9440
:10311000A117882319F049814061498382E20E9406
:10312000A117882319F059815062598383E20E94C4
:10313000A117882319F089818064898384E20E9421
:10314000A1178823B1F199819068998389810E94A0
:1031500067163981232F30E050E040E029833A831D
:103160004B835C83CA01B9010F900F900F900F90B1
:10317000DF91CF910C94AE128EE00E94A1178823AC
:1031800039F09091F001892F8B7F92FF846029CFD5
:1031900080E10E94A1179091F001882329F0892FE6
:1031A000877F93FF88601DCF892F8E7F90FF81607E
:1031B00018CFA981A111CACF0E946316282FCBCFA7
:1031C0000F900F900F900F90DF91CF910895809105
:1031D000F40180FF12C06091050185E0689FB00195
:1031E0001124759567957595679560387105A8F5F3
:1031F00061157105A1F1862F089581FF09C06091C5
:10320000050185E0689FB001112475956795EDCFA4
:103210006091050182FD0AC08091F5018823D1F0FB
:103220009091040160910501891728F085E0689F5D
:10323000B0011124DACF869FB001112485E0869F6A
:103240009001879F300D1124692F70E0C9010E9401
:103250005F23CBCF65E070E0CECF8FE7089581E0AC
:1032600008958091F40180FF0CC06091030170E02B
:1032700075956795759567956115710549F1862F67
:10328000089581FF06C06091030170E07595679510
:10329000F3CF6091030182FD0BC09091F50199235A
:1032A000A1F06091020180910301961738F0682F18
:1032B00070E06038710500F38FE70895899FC001C1
:1032C000112470E00E945F23F4CF61E070E0D7CF5B
:1032D00081E00895803F31F40E94E7188195809342
:1032E000F8010895813F19F40E94E718F8CF823F52
:1032F00031F40E94E71881958093F7010895833F88
:1033000019F40E94E718F8CF893F29F40E94311977
:103310008093F90108958A3F21F40E943119819523
:10332000F7CF8B3F31F40E94311981958093FA01D8
:1033300008958C3F19F40E943119F8CF843F31F47D
:103340008091F60181608093F6010895853F21F414
:103350008091F6018260F7CF863F21F48091F601DB
:103360008460F1CF873F21F48091F6018860EBCF34
:10337000883F21F48091F6018061E5CF8D3F31F4E3
:103380008091F40181608093F40108958E3F21F4CF
:103390008091F4018260F7CF8F3FB9F78091F401FB
:1033A0008460F1CF9091F701803F41F48091F80162
:1033B00087FD1092F801992371F00895813F29F457
:1033C0008091F8011816ACF3F6CF823F81F497FF95
:1033D000F2CF1092F7018091F8019091F901892BB9
:1033E0009091FA01892B49F71092F5010895833FD6
:1033F00019F4191674F3DFCF893F39F48091F9017C
:103400001816CCF61092F901D6CF8A3F29F4809194
:10341000F90187FFD0CFF6CF8B3F39F48091FA01C5
:1034200087FFC9CF1092FA01C6CF8C3F29F4809153
:10343000FA011816BCF3BFCF843F31F48091F60136
:103440008E7F8093F601B7CF853F21F48091F601FE
:103450008D7FF7CF863F21F48091F6018B7FF1CFEE
:10346000873F21F48091F601877FEBCF883F21F4DD
:103470008091F6018F7EE5CF8D3F31F48091F4018C
:103480008E7F8093F40197CF8E3F21F48091F401D9
:103490008D7FF7CF8F3F09F08ECF8091F4018B7F26
:1034A000F0CF86EF91E00E942B0A0E94EE169093D7
:1034B000F3018093F20108951F93CF93DF9300D01F
:1034C00000D000D0CDB7DEB78091F2019091F3012A
:1034D0000E94FA16AC018091F5012091060130E0BE
:1034E000811106C0209107019AE0299F90011124C3
:1034F0004217530788F02091F701A091F801A983A2
:103500001091F901B091FA01BE8321110FC09A2FD9
:10351000912B9B2B09F0B2C026960FB6F894DEBF14
:103520000FBECDBFDF91CF911F9108958F3F19F04E
:103530008F5F8093F501121624F40E94E7188093A0
:10354000F7018091F70187FF05C00E94E718819578
:103550008093F7012981121624F40E94E7188093C2
:10356000F8018091F80187FF05C00E94E718819556
:103570008093F8018091F701882309F455C03091B8
:10358000F8013D83332309F44FC0282F880F330BF4
:10359000440B550B29833A834B835C83CA01B901E1
:1035A0000E94662223E333E343E35FE369837A8384
:1035B0008B839C8369817A818B819C810E94CA2242
:1035C00069837A838B839C8369817A818B819C81D7
:1035D0000E942E226093F7018D81082E000C990B1A
:1035E000AA0BBB0B89839A83AB83BC83BC01CD013F
:1035F0000E94662223E333E343E35FE369837A8334
:103600008B839C8369817A818B819C810E94CA22F1
:1036100069837A838B839C8369817A818B819C8186
:103620000E942E226093F801111624F40E94311991
:103630008093F9018091F90187FF05C00E9431193B
:1036400081958093F9019E81191624F40E94311905
:103650008093FA018091FA0187FF05C00E94311919
:1036600081958093FA0126960FB6F894DEBF0FBEBF
:10367000CDBFDF91CF911F910C94511A8F3F09F06C
:1036800057CF68CF85E0E6EFF1E0DF011D928A9524
:10369000E9F71092F5011092F401089580911B0250
:1036A0000895CF93DF9300D00F92CDB7DEB720916E
:1036B0002702243019F523E029838A839B832093F2
:1036C000E9008FEF9091E800815095FD06C095EDDF
:1036D0009A95F1F700008111F5CF8091E80085FF00
:1036E0000DC050E040E063E070E0CE0101960E9422
:1036F000AE1D8091E8008E778093E8000F900F90C8
:103700000F90DF91CF910895CF93DF9300D00F9268
:10371000CDB7DEB79C0180912702843031F582E07D
:103720008983205831093B832A8383E08093E90011
:103730008FEF9091E800815095FD06C095ED9A9528
:10374000F1F700008111F5CF8091E80085FF0DC0F1
:1037500050E040E063E070E0CE0101960E94AE1DB3
:103760008091E8008E778093E8000F900F900F9083
:10377000DF91CF910895209127022430F1F422E0C7
:103780002093E9002FEF3091E800215035FD06C06D
:1037900035ED3A95F1F700002111F5CF2091E800C1
:1037A00025FF0BC050E040E065E070E00E94AE1DD8
:1037B0008091E8008E778093E8000895CF93DF939F
:1037C000D82FC92F809127028430F1F490911201F3
:1037D0009923E9F09091210297FF19C08093E900A5
:1037E0008FEF9091E800815095FD06C095E19A9584
:1037F000F1F700008111F5CF8091E80050E040E042
:1038000060E270E085FD1AC0DF91CF91089581E0FC
:103810008093E9008FEF9091E800815095FD06C0FC
:1038200095ED9A95F1F700008111F5CF8091E800B0
:1038300085FFEACF50E040E068E070E08D2F9C2FDC
:103840000E94AE1D8091E8008E778093E80080E2B0
:10385000ED2FFC2FABEFB1E001900D928A95E1F7CF
:10386000D3CF80912602811109C00E94361F0E9489
:10387000931F8091E20084608093E200089510928B
:1038800026020895089508950C94B81642E061EC5C
:1038900081E00E94B21E42E061EC82E00E94B21E12
:1038A00042E061EC83E00E94B21E42E261EC84E0FF
:1038B0000C94B21E80912902893089F148F482303B
:1038C00009F494C0833009F44FC0813041F0089569
:1038D0008A3009F47BC08B3009F461C0089580916F
:1038E0002802813A09F03FC08091E800877F8093E9
:1038F000E80080912C0290912D02892B61F460E206
:103900008BEF91E070E00E94FD1D8091E8008B77C5
:103910008093E800089560E090E080E0F3CF80912C
:103920002802813201F580912C0290912D0200979E
:1039300011F00397C1F48091E800877F8093E8003D
:103940008091E80082FF0BC08091F10080931B0200
:103950008091E8008B778093E8000C94E61E8091BC
:1039600027028111EDCF089580912802813AD9F77D
:1039700080912C0290912D02892BA9F78091E8006B
:10398000877F8093E8008091E80080FFFCCF8091E2
:1039900012018093F1008091E8008E77DCCF809156
:1039A0002802813201F780912C0290912D02892BFF
:1039B000D1F68091E800877F8093E8000E94E61EA0
:1039C00080912A02809312010C940F0F809128029B
:1039D000813249F68091E800877F8093E8000E9459
:1039E000E61E80912B0280931C020895809128028C
:1039F000813A09F0B8CF8091E800877F8093E80092
:103A00008091E80080FFFCCF80911C02C2CF84B778
:103A1000877F84BF0FB6F894A89580916000886175
:103A200080936000109260000FBE80E88093610078
:103A3000109261000E94630A0E94361F0E94931F29
:103A40008091E20084608093E20078940E941322C7
:103A50000E94650A88E091E00E940F0A8091270287
:103A6000853019F00E946B0AF9CF0E94751680917B
:103A70002502882399F30E94A316882379F30E94D4
:103A8000981DECCF9C01DA01892F9927833091058D
:103A9000C1F068F48130910509F445C0029761F4E2
:103AA0008DE690E02CE038E02D933C930895813230
:103AB0009105E1F0829739F190E080E030E020E07C
:103AC000F3CFC9019927213059F08230910559F07F
:103AD000E8E0F8E0892B81F7849190E09F01E4CF42
:103AE000E0EFF7E0F9CFECEDF7E0F6CF643020F748
:103AF000E62FF0E0EE0FFF1FE15DFE4F20813181E8
:103B000089E090E0D1CF6430B8F670E0FB01EE0FB1
:103B1000FF1FE95DFE4F208131816D5D7E4FFB010E
:103B2000808190E0C1CF82E190E029E738E0BCCF0E
:103B300080E189BD82E189BD09B400FEFDCF80919D
:103B4000D8008F7D8093D8008091E00082608093C0
:103B5000E0008091E00081FDFCCF0895AF92BF921C
:103B6000CF92DF92FF920F931F93CF93DF936C015D
:103B7000EB018A010E94051FF82E811123C0011557
:103B8000110539F0F80180819181C81BD90BC80E4D
:103B9000D91EB12CA12C2097A9F08091E80085FDB9
:103BA00022C08091E8008E778093E800011511050E
:103BB000A1F0F80180819181A80EB91EB182A08286
:103BC00085E0F82E8F2DDF91CF911F910F91FF90FF
:103BD000DF90CF90BF90AF9008950E94051F88237B
:103BE000D1F2F82EEFCFF60181916F018093F100B1
:103BF0002197FFEFAF1ABF0ACECFFC01CB01209176
:103C00002E0230912F022617370790F0009729F4E3
:103C10002091E8002E772093E80040E0009751F4CF
:103C2000411108C08091E80082FF31C080E0089512
:103C3000C901F3CF209127022223A9F12530A9F150
:103C40002091E80023FD2DC02091E80022FDEACF5D
:103C50002091E80020FFE2CF3091F3002091F200A4
:103C6000009719F02830310558F041E0283031052F
:103C700009F040E02091E8002E772093E800CECFB5
:103C800041914093F10001972F5F3F4FE9CF809121
:103C90002702882341F0853041F08091E80083FFBE
:103CA000C1CF81E0089582E0089583E00895FC018A
:103CB000CB0120912E0230912F022617370790F06A
:103CC000009729F42091E8002E772093E80040E047
:103CD000009751F4411108C08091E80082FF32C082
:103CE00080E00895C901F3CF209127022223B1F18A
:103CF0002530B1F12091E80023FD2EC02091E8008D
:103D000022FDEACF2091E80020FFE2CF3091F300BE
:103D10002091F200009719F02830310558F041E069
:103D20002830310509F040E02091E8002E772093FB
:103D3000E800CECF44914093F100319601972F5F78
:103D40003F4FE8CF80912702882341F0853041F032
:103D50008091E80083FFC0CF81E0089582E008955C
:103D600083E00895982F973028F08F708093E900B2
:103D700081E008959093E900242F762F50E0981762
:103D800031F07091EC002091ED005091F00021FD98
:103D900002C09F5FE8CF3091EB003E7F3093EB0095
:103DA0003091ED003D7F3093ED003091EB003160BC
:103DB0003093EB007093EC002093ED005093F000F3
:103DC0002091EE0027FDE5CF80E008958091280244
:103DD00087FF13C08091E80082FF06C08091E80051
:103DE0008B778093E80004C0809127028111F2CF85
:103DF0000895809127028823D9F38091E80080FFFD
:103E0000F8CF8091E8008E77ECCF2091E4003091DC
:103E1000E50095E6A9012091EC00822F817020FF3A
:103E200006C08091E80080FF06C080E008952091E0
:103E3000E80022FD1AC080912702882389F085308E
:103E400089F08091EB0085FD0FC02091E400309156
:103E5000E50042175307F9F29150E1F684E0089526
:103E600082E0089583E0089581E008950E94A41FF0
:103E70000E94AC1FE0EEF0E0808181608083E8ED7D
:103E8000F0E080818F77808319BCA7EDB0E08C9142
:103E90008E7F8C9380818F7E80831092260208957E
:103EA0000F931F93CF93DF930E94A41F0E94AC1F18
:103EB000C8EDD0E088818F77888388818068888387
:103EC00088818F7D888319BC10922702109223026B
:103ED000109225021092240200EE10E0F801808179
:103EE0008B7F808388818160888342E060E080E00E
:103EF0000E94B21EE1EEF0E080818E7F8083E2EED0
:103F0000F0E0808181608083808188608083F80117
:103F100080818E7F8083888180618883DF91CF91CB
:103F20001F910F910895E8EDF0E080818F7E8083EE
:103F3000E7EDF0E080818160808384E082BF81E0F2
:103F4000809326020C94501FE8EDF0E080818E7F74
:103F500080831092E20008951092DA001092E1003E
:103F600008951F920F920FB60F9211242F933F9333
:103F70004F935F936F937F938F939F93AF93BF9371
:103F8000EF93FF938091E10082FF0BC08091E200EC
:103F900082FF07C08091E1008B7F8093E1000E9447
:103FA00012228091DA0080FF19C08091D80080FF32
:103FB00015C08091DA008E7F8093DA008091D9005D
:103FC00080FF94C080E189BD82E189BD09B400FE13
:103FD000FDCF81E0809327020E94311C8091E10097
:103FE00080FF19C08091E20080FF15C08091E2003F
:103FF0008E7F8093E2008091E20080618093E200F6
:104000008091D80080628093D80019BC85E08093AD
:1040100027020E94431C8091E10084FF29C0809107
:10402000E20084FF25C080E189BD82E189BD09B439
:1040300000FEFDCF8091D8008F7D8093D8008091C5
:10404000E1008F7E8093E1008091E2008F7E80937B
:10405000E2008091E20081608093E200809123027F
:10406000882309F449C084E0809327020E94441CFD
:104070008091E10083FF29C08091E20083FF25C089
:104080008091E100877F8093E10082E080932702A6
:10409000109223028091E1008E7F8093E100809155
:1040A000E2008E7F8093E2008091E2008061809345
:1040B000E20042E060E080E00E94B21E8091F000E9
:1040C00088608093F0000E94421CFF91EF91BF91A5
:1040D000AF919F918F917F916F915F914F913F91A0
:1040E0002F910F900FBE0F901F90189519BC109232
:1040F00027020E943F1C72CF8091E30087FD02C01F
:1041000081E0B2CF83E0B0CF1F920F920FB60F9233
:1041100011242F933F934F935F936F937F938F93CC
:104120009F93AF93BF93CF93DF93EF93FF93D09180
:10413000E900DF708091EC00C82FC17080FDC0E8FD
:104140001092E9008091F000877F8093F0007894CE
:104150000E94C8201092E9008091F000886080934E
:10416000F000CD2BCF70C093E900FF91EF91DF916C
:10417000CF91BF91AF919F918F917F916F915F91FF
:104180004F913F912F910F900FBE0F901F90189558
:104190001F93CF93DF93CDB7DEB7AA970FB6F894EE
:1041A000DEBF0FBECDBF88E292E0FC0101962091F8
:1041B000F100208322E080339207B9F70E945A1C55
:1041C0008091E80083FF16C1809128029091290216
:1041D0009A3008F00FC1E92FF0E0E951FC4D0C9442
:1041E0007323803881F0823809F004C180912C0259
:1041F0008F708093E9008091EB0085FB882780F920
:104200001092E90006C0809124029091250291113C
:1042100082609091E800977F9093E8008093F1008E
:104220001092F1008091E8008E77E0C0882309F4B5
:10423000CEC0823009F0DEC080912A028111D1C047
:1042400080912C028F7009F4D5C08093E9002091F1
:10425000EB0020FFC6C0933031F48091EB00806208
:104260008093EB00BEC09091EB0090619093EB00C7
:1042700021E030E001C0220F8A95EAF72093EA009E
:104280001092EA008091EB008860EACF8111B2C001
:1042900010912A021F778091E3008078812B809310
:1042A000E3008091E800877F8093E8000E94E61E8B
:1042B0008091E80080FFFCCF8091E30080688093CC
:1042C000E30082E0111183E08093270293C08058BD
:1042D000823008F08FC080912A0290912B028C3D91
:1042E00023E09207A1F583E08A838AE289834FB7AE
:1042F000F894DE01139620E03EE051E2E32FF0E077
:1043000050935700E49120FF03C0E295EF703F5FA8
:10431000EF708E2F90E0EA30C0F0C7968D939D939A
:104320002F5F243159F74FBF8091E800877F80933A
:10433000E8006AE270E0CE0101960E94FD1D8091C6
:10434000E8008B778093E80055C0C096E7CFAE01B8
:104350004F5F5F4F60912C020E94421DBC01892B70
:1043600009F448C08091E800877F8093E800898144
:104370009A810E94571EE3CF8038E1F58091E800D2
:10438000877F8093E800809123028093F1004ACFD9
:10439000811130C090912A02923060F58091E8003E
:1043A000877F8093E800909323020E94E61E80910D
:1043B0002302882311F084E005C08091E30087FD8B
:1043C000FACF81E0809327020E94461C13C080919F
:1043D0002A02813079F481E0933009F080E0809303
:1043E00025021092E9008091E800877F8093E80021
:1043F0000E94E61E8091E80083FF0AC08091E800D9
:10440000877F8093E8008091EB0080628093EB00CF
:10441000AA960FB6F894DEBF0FBECDBFDF91CF9145
:104420001F9108950895CF93809127028823A1F0CA
:10443000C091E900CF709091EC00892F817090FDC0
:1044400080E8C82B1092E9008091E80083FD0E946B
:10445000C820CF70C093E900CF9108950E94352203
:104460006894B1110C94C42208950E94A92288F086
:104470009F5798F0B92F9927B751B0F0E1F0660F28
:10448000771F881F991F1AF0BA95C9F714C0B13069
:1044900091F00E94C322B1E008950C94C322672FCB
:1044A000782F8827B85F39F0B93FCCF38695779598
:1044B0006795B395D9F73EF4909580957095619581
:1044C0007F4F8F4F9F4F0895E89409C097FB3EF4AC
:1044D00090958095709561957F4F8F4F9F4F992351
:1044E000A9F0F92F96E9BB279395F69587957795CF
:1044F0006795B795F111F8CFFAF4BB0F11F460FF8F
:104500001BC06F5F7F4F8F4F9F4F16C0882311F0E6
:1045100096E911C0772321F09EE8872F762F05C0FA
:10452000662371F096E8862F70E060E02AF09A9595
:10453000660F771F881FDAF7880F9695879597F98A
:10454000089557FD9058440F551F59F05F3F71F083
:104550004795880F97FB991F61F09F3F79F08795EA
:104560000895121613061406551FF2CF4695F1DF73
:1045700008C0161617061806991FF1CF8695710503
:10458000610508940895E894BB2766277727CB0137
:1045900097F908950E94DD220C944E230E94402337
:1045A00038F00E94472320F0952311F00C94372314
:1045B0000C943D2311240C94C4220E94A12270F378
:1045C000959FC1F3950F50E0551F629FF001729FB8
:1045D000BB27F00DB11D639FAA27F00DB11DAA1FC7
:1045E000649F6627B00DA11D661F829F2227B00D14
:1045F000A11D621F739FB00DA11D621F839FA00D9F
:10460000611D221F749F3327A00D611D231F849FEE
:10461000600D211D822F762F6A2F11249F57504045
:104620009AF0F1F088234AF0EE0FFF1FBB1F661FC0
:10463000771F881F91505040A9F79E3F510580F089
:104640000C9437230C94C4225F3FE4F3983ED4F3D8
:10465000869577956795B795F795E7959F5FC1F72D
:10466000FE2B880F911D9695879597F9089597F9D8
:104670009F6780E870E060E008959FEF80EC089508
:1046800000240A9416161706180609060895002431
:104690000A9412161306140605060895092E0394AB
:1046A000000C11F4882352F0BB0F40F4BF2B11F41F
:1046B00060FF04C06F5F7F4F8F4F9F4F089597FB40
:1046C000072E16F4009407D077FD09D00E947923B5
:1046D00007FC05D03EF4909581959F4F0895709505
:1046E00061957F4F0895EE0FFF1F0590F491E02D27
:1046F0000994AA1BBB1B51E107C0AA1FBB1FA61729
:10470000B70710F0A61BB70B881F991F5A95A9F77A
:1047100080959095BC01CD010895F999FECF92BD89
:1047200081BDF89A992780B50895A8E1B0E042E0EC
:1047300050E00C94B523262FF999FECF92BD81BD90
:10474000F89A019700B4021639F01FBA20BD0FB6CF
:10475000F894FA9AF99A0FBE08950196272F0E94AD
:104760009C230C949B23DC01CB01FC01F999FECF27
:1047700006C0F2BDE1BDF89A319600B40D924150E9
:104780005040B8F70895F894FFCFE805F405F80510
:10479000FC050006040608060C061006140618069A
:1047A0001C062006240628062C0630063406BA0C01
:1047B000BA0C120D120D560D720DEA0CEA0C7D0D9D
:1047C000EA0C450E450EB00EEA0CEA0CB90EF120CB
:1047D0001621FA211621FA2146216721FA21BC214E
:0247E000C821EE
:1047E200CD012808140A321E4E1BDE1BBB1B841B84
:1047F200511B013534C697F4949091F7F6F566365D
:10480200323331404D36394709FA08C4088B081E45
:0848120008370850086908008E
:00000001FF
